{
  "transactions": [
    {
      "hash": null,
      "transactionType": "CALL",
      "contractName": null,
      "contractAddress": "0xb5359eCdc13f055DF2b433520F9Df35D68F49D3d",
      "function": "mint(address,uint256)",
      "arguments": [
        "0x599e1DE505CfD6f10F64DD7268D856831f61627a",
        "500100000000000000000000"
      ],
      "transaction": {
        "type": "0x02",
        "from": "0x599e1de505cfd6f10f64dd7268d856831f61627a",
        "to": "0xb5359ecdc13f055df2b433520f9df35d68f49d3d",
        "gas": "0x12013",
        "value": "0x0",
        "data": "0x40c10f19000000000000000000000000599e1de505cfd6f10f64dd7268d856831f61627a0000000000000000000000000000000000000000000069e679aec4a433900000",
        "nonce": "0x1",
        "accessList": []
      },
      "additionalContracts": [],
      "isFixedGasLimit": false
    },
    {
      "hash": null,
      "transactionType": "CALL",
      "contractName": null,
      "contractAddress": "0xb5359eCdc13f055DF2b433520F9Df35D68F49D3d",
      "function": "approve(address,uint256)",
      "arguments": [
        "0x8E2a4c71906640B058051c00783160bE306c38fE",
        "500100000000000000000000"
      ],
      "transaction": {
        "type": "0x02",
        "from": "0x599e1de505cfd6f10f64dd7268d856831f61627a",
        "to": "0xb5359ecdc13f055df2b433520f9df35d68f49d3d",
        "gas": "0xf9c9",
        "value": "0x0",
        "data": "0x095ea7b30000000000000000000000008e2a4c71906640b058051c00783160be306c38fe0000000000000000000000000000000000000000000069e679aec4a433900000",
        "nonce": "0x2",
        "accessList": []
      },
      "additionalContracts": [],
      "isFixedGasLimit": false
    },
    {
      "hash": null,
      "transactionType": "CALL",
      "contractName": null,
      "contractAddress": "0x8E2a4c71906640B058051c00783160bE306c38fE",
      "function": "queueNewRewards(address,uint256)",
      "arguments": [
        "0x419fb13b1F22c4E3A364176B237E372cA55dF4a8",
        "100000000000000000000000"
      ],
      "transaction": {
        "type": "0x02",
        "from": "0x599e1de505cfd6f10f64dd7268d856831f61627a",
        "to": "0x8e2a4c71906640b058051c00783160be306c38fe",
        "gas": "0x25ce5",
        "value": "0x0",
        "data": "0x04d0c2c5000000000000000000000000419fb13b1f22c4e3a364176b237e372ca55df4a800000000000000000000000000000000000000000000152d02c7e14af6800000",
        "nonce": "0x3",
        "accessList": []
      },
      "additionalContracts": [],
      "isFixedGasLimit": false
    },
    {
      "hash": null,
      "transactionType": "CALL",
      "contractName": null,
      "contractAddress": "0x8E2a4c71906640B058051c00783160bE306c38fE",
      "function": "queueNewRewards(address,uint256)",
      "arguments": [
        "0x7D627406672F712e69080cf9718fb21c30995f09",
        "100000000000000000000000"
      ],
      "transaction": {
        "type": "0x02",
        "from": "0x599e1de505cfd6f10f64dd7268d856831f61627a",
        "to": "0x8e2a4c71906640b058051c00783160be306c38fe",
        "gas": "0x2299c",
        "value": "0x0",
        "data": "0x04d0c2c50000000000000000000000007d627406672f712e69080cf9718fb21c30995f0900000000000000000000000000000000000000000000152d02c7e14af6800000",
        "nonce": "0x4",
        "accessList": []
      },
      "additionalContracts": [],
      "isFixedGasLimit": false
    },
    {
      "hash": null,
      "transactionType": "CALL",
      "contractName": null,
      "contractAddress": "0x8E2a4c71906640B058051c00783160bE306c38fE",
      "function": "queueNewRewards(address,uint256)",
      "arguments": [
        "0x3e27FfA5A041c6407F44c0C63d7df38293F02F05",
        "100000000000000000000000"
      ],
      "transaction": {
        "type": "0x02",
        "from": "0x599e1de505cfd6f10f64dd7268d856831f61627a",
        "to": "0x8e2a4c71906640b058051c00783160be306c38fe",
        "gas": "0x238b8",
        "value": "0x0",
        "data": "0x04d0c2c50000000000000000000000003e27ffa5a041c6407f44c0c63d7df38293f02f0500000000000000000000000000000000000000000000152d02c7e14af6800000",
        "nonce": "0x5",
        "accessList": []
      },
      "additionalContracts": [],
      "isFixedGasLimit": false
    },
    {
      "hash": null,
      "transactionType": "CALL",
      "contractName": null,
      "contractAddress": "0x8E2a4c71906640B058051c00783160bE306c38fE",
      "function": "queueNewRewards(address,uint256)",
      "arguments": [
        "0xFdd8c4E2aB469afb84938E3ac44b30651E83948c",
        "33350000000000000000000"
      ],
      "transaction": {
        "type": "0x02",
        "from": "0x599e1de505cfd6f10f64dd7268d856831f61627a",
        "to": "0x8e2a4c71906640b058051c00783160be306c38fe",
        "gas": "0x290f2",
        "value": "0x0",
        "data": "0x04d0c2c5000000000000000000000000fdd8c4e2ab469afb84938e3ac44b30651e83948c00000000000000000000000000000000000000000000070fe83930208d580000",
        "nonce": "0x6",
        "accessList": []
      },
      "additionalContracts": [],
      "isFixedGasLimit": false
    },
    {
      "hash": null,
      "transactionType": "CALL",
      "contractName": null,
      "contractAddress": "0x8E2a4c71906640B058051c00783160bE306c38fE",
      "function": "queueNewRewards(address,uint256)",
      "arguments": [
        "0x3c1C2014dab3B633C78BC79C1D6f454bF59B6122",
        "33350000000000000000000"
      ],
      "transaction": {
        "type": "0x02",
        "from": "0x599e1de505cfd6f10f64dd7268d856831f61627a",
        "to": "0x8e2a4c71906640b058051c00783160be306c38fe",
        "gas": "0x290f2",
        "value": "0x0",
        "data": "0x04d0c2c50000000000000000000000003c1c2014dab3b633c78bc79c1d6f454bf59b612200000000000000000000000000000000000000000000070fe83930208d580000",
        "nonce": "0x7",
        "accessList": []
      },
      "additionalContracts": [],
      "isFixedGasLimit": false
    },
    {
      "hash": null,
      "transactionType": "CALL",
      "contractName": null,
      "contractAddress": "0x8E2a4c71906640B058051c00783160bE306c38fE",
      "function": "queueNewRewards(address,uint256)",
      "arguments": [
        "0x0c5a878A0930f474FF1127008f406D35b0F8eC53",
        "33350000000000000000000"
      ],
      "transaction": {
        "type": "0x02",
        "from": "0x599e1de505cfd6f10f64dd7268d856831f61627a",
        "to": "0x8e2a4c71906640b058051c00783160be306c38fe",
        "gas": "0x3074a",
        "value": "0x0",
        "data": "0x04d0c2c50000000000000000000000000c5a878a0930f474ff1127008f406d35b0f8ec5300000000000000000000000000000000000000000000070fe83930208d580000",
        "nonce": "0x8",
        "accessList": []
      },
      "additionalContracts": [],
      "isFixedGasLimit": false
    },
    {
      "hash": null,
      "transactionType": "CALL",
      "contractName": null,
      "contractAddress": "0x8E2a4c71906640B058051c00783160bE306c38fE",
      "function": "queueNewRewards(address,uint256)",
      "arguments": [
        "0x8abe3b2C69682FD4778772ff5a48f43724cCFBF4",
        "33350000000000000000000"
      ],
      "transaction": {
        "type": "0x02",
        "from": "0x599e1de505cfd6f10f64dd7268d856831f61627a",
        "to": "0x8e2a4c71906640b058051c00783160be306c38fe",
        "gas": "0x290f2",
        "value": "0x0",
        "data": "0x04d0c2c50000000000000000000000008abe3b2c69682fd4778772ff5a48f43724ccfbf400000000000000000000000000000000000000000000070fe83930208d580000",
        "nonce": "0x9",
        "accessList": []
      },
      "additionalContracts": [],
      "isFixedGasLimit": false
    },
    {
      "hash": null,
      "transactionType": "CALL",
      "contractName": null,
      "contractAddress": "0x8E2a4c71906640B058051c00783160bE306c38fE",
      "function": "queueNewRewards(address,uint256)",
      "arguments": [
        "0x1194ffb6139e8610012F11bCc219B46C33c87b9f",
        "33350000000000000000000"
      ],
      "transaction": {
        "type": "0x02",
        "from": "0x599e1de505cfd6f10f64dd7268d856831f61627a",
        "to": "0x8e2a4c71906640b058051c00783160be306c38fe",
        "gas": "0x334f8",
        "value": "0x0",
        "data": "0x04d0c2c50000000000000000000000001194ffb6139e8610012f11bcc219b46c33c87b9f00000000000000000000000000000000000000000000070fe83930208d580000",
        "nonce": "0xa",
        "accessList": []
      },
      "additionalContracts": [],
      "isFixedGasLimit": false
    },
    {
      "hash": null,
      "transactionType": "CALL",
      "contractName": null,
      "contractAddress": "0x8E2a4c71906640B058051c00783160bE306c38fE",
      "function": "queueNewRewards(address,uint256)",
      "arguments": [
        "0x69B361Fb23daB36F71B8D9916507136Df8aA9231",
        "33350000000000000000000"
      ],
      "transaction": {
        "type": "0x02",
        "from": "0x599e1de505cfd6f10f64dd7268d856831f61627a",
        "to": "0x8e2a4c71906640b058051c00783160be306c38fe",
        "gas": "0x2fe20",
        "value": "0x0",
        "data": "0x04d0c2c500000000000000000000000069b361fb23dab36f71b8d9916507136df8aa923100000000000000000000000000000000000000000000070fe83930208d580000",
        "nonce": "0xb",
        "accessList": []
      },
      "additionalContracts": [],
      "isFixedGasLimit": false
    }
  ],
  "receipts": [],
  "libraries": [],
  "pending": [],
  "returns": {},
  "timestamp": 1706802944,
  "chain": 10,
  "multi": false,
  "commit": "504312c8"
}