{
  "transactions": [
    {
      "hash": null,
      "transactionType": "CALL",
      "contractName": null,
      "contractAddress": "0xFC2748D74703cf6f2CE8ca9C8F388C3DAB1856f0",
      "function": "setIncentivesController(address)",
      "arguments": [
        "0x79dfAAd6CAE7Eb2569B97a9bdD46a8655612361e"
      ],
      "transaction": {
        "type": "0x02",
        "from": "0x599e1de505cfd6f10f64dd7268d856831f61627a",
        "to": "0xfc2748d74703cf6f2ce8ca9c8f388c3dab1856f0",
        "gas": "0xd5bf",
        "value": "0x0",
        "data": "0xe655dbd800000000000000000000000079dfaad6cae7eb2569b97a9bdd46a8655612361e",
        "nonce": "0x1",
        "accessList": []
      },
      "additionalContracts": [],
      "isFixedGasLimit": false
    },
    {
      "hash": null,
      "transactionType": "CALL",
      "contractName": null,
      "contractAddress": "0x8E2a4c71906640B058051c00783160bE306c38fE",
      "function": "setVeVmex(address)",
      "arguments": [
        "0xD5A3E749a03c2f9645fdF2d755f96e407d0A2D5a"
      ],
      "transaction": {
        "type": "0x02",
        "from": "0x599e1de505cfd6f10f64dd7268d856831f61627a",
        "to": "0x8e2a4c71906640b058051c00783160be306c38fe",
        "gas": "0x13338",
        "value": "0x0",
        "data": "0xcf497674000000000000000000000000d5a3e749a03c2f9645fdf2d755f96e407d0a2d5a",
        "nonce": "0x2",
        "accessList": []
      },
      "additionalContracts": [],
      "isFixedGasLimit": false
    },
    {
      "hash": null,
      "transactionType": "CALL",
      "contractName": null,
      "contractAddress": "0x8E2a4c71906640B058051c00783160bE306c38fE",
      "function": "setDVmexRewardPool(address)",
      "arguments": [
        "0xC4F1050a3216b116a78133038912BC3b9506aEF0"
      ],
      "transaction": {
        "type": "0x02",
        "from": "0x599e1de505cfd6f10f64dd7268d856831f61627a",
        "to": "0x8e2a4c71906640b058051c00783160be306c38fe",
        "gas": "0x13393",
        "value": "0x0",
        "data": "0x7339e766000000000000000000000000c4f1050a3216b116a78133038912bc3b9506aef0",
        "nonce": "0x3",
        "accessList": []
      },
      "additionalContracts": [],
      "isFixedGasLimit": false
    },
    {
      "hash": null,
      "transactionType": "CALL",
      "contractName": null,
      "contractAddress": "0x8E2a4c71906640B058051c00783160bE306c38fE",
      "function": "setDVmex(address)",
      "arguments": [
        "0xb5359eCdc13f055DF2b433520F9Df35D68F49D3d"
      ],
      "transaction": {
        "type": "0x02",
        "from": "0x599e1de505cfd6f10f64dd7268d856831f61627a",
        "to": "0x8e2a4c71906640b058051c00783160be306c38fe",
        "gas": "0x1d4aa",
        "value": "0x0",
        "data": "0x19309342000000000000000000000000b5359ecdc13f055df2b433520f9df35d68f49d3d",
        "nonce": "0x4",
        "accessList": []
      },
      "additionalContracts": [],
      "isFixedGasLimit": false
    },
    {
      "hash": null,
      "transactionType": "CALL",
      "contractName": null,
      "contractAddress": "0xb5359eCdc13f055DF2b433520F9Df35D68F49D3d",
      "function": "mint(address,uint256)",
      "arguments": [
        "0x599e1DE505CfD6f10F64DD7268D856831f61627a",
        "175000000000000000000000"
      ],
      "transaction": {
        "type": "0x02",
        "from": "0x599e1de505cfd6f10f64dd7268d856831f61627a",
        "to": "0xb5359ecdc13f055df2b433520f9df35d68f49d3d",
        "gas": "0x12013",
        "value": "0x0",
        "data": "0x40c10f19000000000000000000000000599e1de505cfd6f10f64dd7268d856831f61627a00000000000000000000000000000000000000000000250ec4ddca432f600000",
        "nonce": "0x5",
        "accessList": []
      },
      "additionalContracts": [],
      "isFixedGasLimit": false
    },
    {
      "hash": null,
      "transactionType": "CALL",
      "contractName": null,
      "contractAddress": "0xb5359eCdc13f055DF2b433520F9Df35D68F49D3d",
      "function": "approve(address,uint256)",
      "arguments": [
        "0x8E2a4c71906640B058051c00783160bE306c38fE",
        "175000000000000000000000"
      ],
      "transaction": {
        "type": "0x02",
        "from": "0x599e1de505cfd6f10f64dd7268d856831f61627a",
        "to": "0xb5359ecdc13f055df2b433520f9df35d68f49d3d",
        "gas": "0xf9c9",
        "value": "0x0",
        "data": "0x095ea7b30000000000000000000000008e2a4c71906640b058051c00783160be306c38fe00000000000000000000000000000000000000000000250ec4ddca432f600000",
        "nonce": "0x6",
        "accessList": []
      },
      "additionalContracts": [],
      "isFixedGasLimit": false
    },
    {
      "hash": null,
      "transactionType": "CALL",
      "contractName": null,
      "contractAddress": "0x8E2a4c71906640B058051c00783160bE306c38fE",
      "function": "queueNewRewards(address,uint256)",
      "arguments": [
        "0x419fb13b1F22c4E3A364176B237E372cA55dF4a8",
        "175000000000000000000000"
      ],
      "transaction": {
        "type": "0x02",
        "from": "0x599e1de505cfd6f10f64dd7268d856831f61627a",
        "to": "0x8e2a4c71906640b058051c00783160be306c38fe",
        "gas": "0x3325d",
        "value": "0x0",
        "data": "0x04d0c2c5000000000000000000000000419fb13b1f22c4e3a364176b237e372ca55df4a800000000000000000000000000000000000000000000250ec4ddca432f600000",
        "nonce": "0x7",
        "accessList": []
      },
      "additionalContracts": [],
      "isFixedGasLimit": false
    },
    {
      "hash": null,
      "transactionType": "CALL",
      "contractName": null,
      "contractAddress": "0xb5359eCdc13f055DF2b433520F9Df35D68F49D3d",
      "function": "mint(address,uint256)",
      "arguments": [
        "0x599e1DE505CfD6f10F64DD7268D856831f61627a",
        "100000000000000000000000"
      ],
      "transaction": {
        "type": "0x02",
        "from": "0x599e1de505cfd6f10f64dd7268d856831f61627a",
        "to": "0xb5359ecdc13f055df2b433520f9df35d68f49d3d",
        "gas": "0x12013",
        "value": "0x0",
        "data": "0x40c10f19000000000000000000000000599e1de505cfd6f10f64dd7268d856831f61627a00000000000000000000000000000000000000000000152d02c7e14af6800000",
        "nonce": "0x8",
        "accessList": []
      },
      "additionalContracts": [],
      "isFixedGasLimit": false
    },
    {
      "hash": null,
      "transactionType": "CALL",
      "contractName": null,
      "contractAddress": "0xb5359eCdc13f055DF2b433520F9Df35D68F49D3d",
      "function": "approve(address,uint256)",
      "arguments": [
        "0x8E2a4c71906640B058051c00783160bE306c38fE",
        "100000000000000000000000"
      ],
      "transaction": {
        "type": "0x02",
        "from": "0x599e1de505cfd6f10f64dd7268d856831f61627a",
        "to": "0xb5359ecdc13f055df2b433520f9df35d68f49d3d",
        "gas": "0xf9c9",
        "value": "0x0",
        "data": "0x095ea7b30000000000000000000000008e2a4c71906640b058051c00783160be306c38fe00000000000000000000000000000000000000000000152d02c7e14af6800000",
        "nonce": "0x9",
        "accessList": []
      },
      "additionalContracts": [],
      "isFixedGasLimit": false
    },
    {
      "hash": null,
      "transactionType": "CALL",
      "contractName": null,
      "contractAddress": "0x8E2a4c71906640B058051c00783160bE306c38fE",
      "function": "queueNewRewards(address,uint256)",
      "arguments": [
        "0x7D627406672F712e69080cf9718fb21c30995f09",
        "100000000000000000000000"
      ],
      "transaction": {
        "type": "0x02",
        "from": "0x599e1de505cfd6f10f64dd7268d856831f61627a",
        "to": "0x8e2a4c71906640b058051c00783160be306c38fe",
        "gas": "0x2d389",
        "value": "0x0",
        "data": "0x04d0c2c50000000000000000000000007d627406672f712e69080cf9718fb21c30995f0900000000000000000000000000000000000000000000152d02c7e14af6800000",
        "nonce": "0xa",
        "accessList": []
      },
      "additionalContracts": [],
      "isFixedGasLimit": false
    },
    {
      "hash": null,
      "transactionType": "CALL",
      "contractName": null,
      "contractAddress": "0xb5359eCdc13f055DF2b433520F9Df35D68F49D3d",
      "function": "mint(address,uint256)",
      "arguments": [
        "0x599e1DE505CfD6f10F64DD7268D856831f61627a",
        "125000000000000000000000"
      ],
      "transaction": {
        "type": "0x02",
        "from": "0x599e1de505cfd6f10f64dd7268d856831f61627a",
        "to": "0xb5359ecdc13f055df2b433520f9df35d68f49d3d",
        "gas": "0x12013",
        "value": "0x0",
        "data": "0x40c10f19000000000000000000000000599e1de505cfd6f10f64dd7268d856831f61627a000000000000000000000000000000000000000000001a784379d99db4200000",
        "nonce": "0xb",
        "accessList": []
      },
      "additionalContracts": [],
      "isFixedGasLimit": false
    },
    {
      "hash": null,
      "transactionType": "CALL",
      "contractName": null,
      "contractAddress": "0xb5359eCdc13f055DF2b433520F9Df35D68F49D3d",
      "function": "approve(address,uint256)",
      "arguments": [
        "0x8E2a4c71906640B058051c00783160bE306c38fE",
        "125000000000000000000000"
      ],
      "transaction": {
        "type": "0x02",
        "from": "0x599e1de505cfd6f10f64dd7268d856831f61627a",
        "to": "0xb5359ecdc13f055df2b433520f9df35d68f49d3d",
        "gas": "0xf9c9",
        "value": "0x0",
        "data": "0x095ea7b30000000000000000000000008e2a4c71906640b058051c00783160be306c38fe000000000000000000000000000000000000000000001a784379d99db4200000",
        "nonce": "0xc",
        "accessList": []
      },
      "additionalContracts": [],
      "isFixedGasLimit": false
    },
    {
      "hash": null,
      "transactionType": "CALL",
      "contractName": null,
      "contractAddress": "0x8E2a4c71906640B058051c00783160bE306c38fE",
      "function": "queueNewRewards(address,uint256)",
      "arguments": [
        "0x3e27FfA5A041c6407F44c0C63d7df38293F02F05",
        "125000000000000000000000"
      ],
      "transaction": {
        "type": "0x02",
        "from": "0x599e1de505cfd6f10f64dd7268d856831f61627a",
        "to": "0x8e2a4c71906640b058051c00783160be306c38fe",
        "gas": "0x2d389",
        "value": "0x0",
        "data": "0x04d0c2c50000000000000000000000003e27ffa5a041c6407f44c0c63d7df38293f02f05000000000000000000000000000000000000000000001a784379d99db4200000",
        "nonce": "0xd",
        "accessList": []
      },
      "additionalContracts": [],
      "isFixedGasLimit": false
    },
    {
      "hash": null,
      "transactionType": "CALL",
      "contractName": null,
      "contractAddress": "0xb5359eCdc13f055DF2b433520F9Df35D68F49D3d",
      "function": "mint(address,uint256)",
      "arguments": [
        "0x599e1DE505CfD6f10F64DD7268D856831f61627a",
        "100000000000000000000000"
      ],
      "transaction": {
        "type": "0x02",
        "from": "0x599e1de505cfd6f10f64dd7268d856831f61627a",
        "to": "0xb5359ecdc13f055df2b433520f9df35d68f49d3d",
        "gas": "0x12013",
        "value": "0x0",
        "data": "0x40c10f19000000000000000000000000599e1de505cfd6f10f64dd7268d856831f61627a00000000000000000000000000000000000000000000152d02c7e14af6800000",
        "nonce": "0xe",
        "accessList": []
      },
      "additionalContracts": [],
      "isFixedGasLimit": false
    },
    {
      "hash": null,
      "transactionType": "CALL",
      "contractName": null,
      "contractAddress": "0xb5359eCdc13f055DF2b433520F9Df35D68F49D3d",
      "function": "approve(address,uint256)",
      "arguments": [
        "0x8E2a4c71906640B058051c00783160bE306c38fE",
        "100000000000000000000000"
      ],
      "transaction": {
        "type": "0x02",
        "from": "0x599e1de505cfd6f10f64dd7268d856831f61627a",
        "to": "0xb5359ecdc13f055df2b433520f9df35d68f49d3d",
        "gas": "0xf9c9",
        "value": "0x0",
        "data": "0x095ea7b30000000000000000000000008e2a4c71906640b058051c00783160be306c38fe00000000000000000000000000000000000000000000152d02c7e14af6800000",
        "nonce": "0xf",
        "accessList": []
      },
      "additionalContracts": [],
      "isFixedGasLimit": false
    },
    {
      "hash": null,
      "transactionType": "CALL",
      "contractName": null,
      "contractAddress": "0x8E2a4c71906640B058051c00783160bE306c38fE",
      "function": "queueNewRewards(address,uint256)",
      "arguments": [
        "0xd4e43E0D278De1024355FCD203A1C16E175Ba32E",
        "100000000000000000000000"
      ],
      "transaction": {
        "type": "0x02",
        "from": "0x599e1de505cfd6f10f64dd7268d856831f61627a",
        "to": "0x8e2a4c71906640b058051c00783160be306c38fe",
        "gas": "0x2d389",
        "value": "0x0",
        "data": "0x04d0c2c5000000000000000000000000d4e43e0d278de1024355fcd203a1c16e175ba32e00000000000000000000000000000000000000000000152d02c7e14af6800000",
        "nonce": "0x10",
        "accessList": []
      },
      "additionalContracts": [],
      "isFixedGasLimit": false
    },
    {
      "hash": null,
      "transactionType": "CALL",
      "contractName": null,
      "contractAddress": "0x8E2a4c71906640B058051c00783160bE306c38fE",
      "function": "updateBoostedBalanceOf(address,address[])",
      "arguments": [
        "0x419fb13b1F22c4E3A364176B237E372cA55dF4a8",
        "[0x0cbe8aB8e5D680C4c75959231c33A036ad123995, 0x1552B1A051430290f1B5E31F156E3CD501f520C3, 0x1eBE167F5edE338822146E4488C82ac5704014F1, 0x28A16430256Db0b3f68826d01530631D5b8F0d17, 0x3E7dd7DF9C1FfD12B8ecD94A27472BDc4d87AB7E, 0x42D599FA0BFBD2070A899d7Fc47399DE91558C5B, 0x4666e94300429C6d3340449bC828E4218F360672, 0x4d180AF22cd72b8c6593656a0e123E0C4760e6ac, 0x5C183B6B02444977c7db8498Bd608a9adD62924a, 0x5fF44C8Be179a57d3f676a29BC0579707A703c92, 0x6BfCF01CcdbA163c2A01F4DD99508790aBc20509, 0x6DF304782b0866d2538C8fd2e46904A7f2AE321c, 0x9C8C2ba798A97a0B6df2504DF52Cf942B40d9aBa, 0xa9E14C1DF751dC3E710fCB3A92019667ae7fCF2D, 0xBCff81420d024627eDd07AB9468Aff7881805D57, 0xc56C2ecFF93F7a771B205B176074E547131d6D18, 0xD22953f3A4A7E383E81C503322F7052A223C40AD]"
      ],
      "transaction": {
        "type": "0x02",
        "from": "0x599e1de505cfd6f10f64dd7268d856831f61627a",
        "to": "0x8e2a4c71906640b058051c00783160be306c38fe",
        "gas": "0x1340b6",
        "value": "0x0",
        "data": "0x5640784f000000000000000000000000419fb13b1f22c4e3a364176b237e372ca55df4a8000000000000000000000000000000000000000000000000000000000000004000000000000000000000000000000000000000000000000000000000000000110000000000000000000000000cbe8ab8e5d680c4c75959231c33a036ad1239950000000000000000000000001552b1a051430290f1b5e31f156e3cd501f520c30000000000000000000000001ebe167f5ede338822146e4488c82ac5704014f100000000000000000000000028a16430256db0b3f68826d01530631d5b8f0d170000000000000000000000003e7dd7df9c1ffd12b8ecd94a27472bdc4d87ab7e00000000000000000000000042d599fa0bfbd2070a899d7fc47399de91558c5b0000000000000000000000004666e94300429c6d3340449bc828e4218f3606720000000000000000000000004d180af22cd72b8c6593656a0e123e0c4760e6ac0000000000000000000000005c183b6b02444977c7db8498bd608a9add62924a0000000000000000000000005ff44c8be179a57d3f676a29bc0579707a703c920000000000000000000000006bfcf01ccdba163c2a01f4dd99508790abc205090000000000000000000000006df304782b0866d2538c8fd2e46904a7f2ae321c0000000000000000000000009c8c2ba798a97a0b6df2504df52cf942b40d9aba000000000000000000000000a9e14c1df751dc3e710fcb3a92019667ae7fcf2d000000000000000000000000bcff81420d024627edd07ab9468aff7881805d57000000000000000000000000c56c2ecff93f7a771b205b176074e547131d6d18000000000000000000000000d22953f3a4a7e383e81c503322f7052a223c40ad",
        "nonce": "0x11",
        "accessList": []
      },
      "additionalContracts": [],
      "isFixedGasLimit": false
    },
    {
      "hash": null,
      "transactionType": "CALL",
      "contractName": null,
      "contractAddress": "0x8E2a4c71906640B058051c00783160bE306c38fE",
      "function": "updateBoostedBalanceOf(address,address[])",
      "arguments": [
        "0x7D627406672F712e69080cf9718fb21c30995f09",
        "[0x0348Db7e4B3803829695f5b077ed2a156Be90F5B, 0x108706524972d0E44936B34109de5bf18Ed60c67, 0x25FA68A4c340202737EDBC67fD1a2Ec8DE872dB6, 0x3E7dd7DF9C1FfD12B8ecD94A27472BDc4d87AB7E, 0x4d180AF22cd72b8c6593656a0e123E0C4760e6ac, 0x5C183B6B02444977c7db8498Bd608a9adD62924a, 0x6BfCF01CcdbA163c2A01F4DD99508790aBc20509, 0x86DFb380D06B221Bba34422a86A9AA65901CcDfc, 0xa9E14C1DF751dC3E710fCB3A92019667ae7fCF2D, 0xBCff81420d024627eDd07AB9468Aff7881805D57, 0xeC9b3355F466f569a0ecE27A47De593ECE425Bc6, 0xF4b29B249A02D24A9ECd4405F78d4c35DE5bF596]"
      ],
      "transaction": {
        "type": "0x02",
        "from": "0x599e1de505cfd6f10f64dd7268d856831f61627a",
        "to": "0x8e2a4c71906640b058051c00783160be306c38fe",
        "gas": "0xdc58b",
        "value": "0x0",
        "data": "0x5640784f0000000000000000000000007d627406672f712e69080cf9718fb21c30995f090000000000000000000000000000000000000000000000000000000000000040000000000000000000000000000000000000000000000000000000000000000c0000000000000000000000000348db7e4b3803829695f5b077ed2a156be90f5b000000000000000000000000108706524972d0e44936b34109de5bf18ed60c6700000000000000000000000025fa68a4c340202737edbc67fd1a2ec8de872db60000000000000000000000003e7dd7df9c1ffd12b8ecd94a27472bdc4d87ab7e0000000000000000000000004d180af22cd72b8c6593656a0e123e0c4760e6ac0000000000000000000000005c183b6b02444977c7db8498bd608a9add62924a0000000000000000000000006bfcf01ccdba163c2a01f4dd99508790abc2050900000000000000000000000086dfb380d06b221bba34422a86a9aa65901ccdfc000000000000000000000000a9e14c1df751dc3e710fcb3a92019667ae7fcf2d000000000000000000000000bcff81420d024627edd07ab9468aff7881805d57000000000000000000000000ec9b3355f466f569a0ece27a47de593ece425bc6000000000000000000000000f4b29b249a02d24a9ecd4405f78d4c35de5bf596",
        "nonce": "0x12",
        "accessList": []
      },
      "additionalContracts": [],
      "isFixedGasLimit": false
    },
    {
      "hash": null,
      "transactionType": "CALL",
      "contractName": null,
      "contractAddress": "0x8E2a4c71906640B058051c00783160bE306c38fE",
      "function": "updateBoostedBalanceOf(address,address[])",
      "arguments": [
        "0x3e27FfA5A041c6407F44c0C63d7df38293F02F05",
        "[0x6BfCF01CcdbA163c2A01F4DD99508790aBc20509, 0x7085f63B3fbe274569e7d28283253B31361F4119, 0xb8A78Ac2E52Da3d6C095FDd1F7b804e03bd16849]"
      ],
      "transaction": {
        "type": "0x02",
        "from": "0x599e1de505cfd6f10f64dd7268d856831f61627a",
        "to": "0x8e2a4c71906640b058051c00783160be306c38fe",
        "gas": "0x49b04",
        "value": "0x0",
        "data": "0x5640784f0000000000000000000000003e27ffa5a041c6407f44c0c63d7df38293f02f05000000000000000000000000000000000000000000000000000000000000004000000000000000000000000000000000000000000000000000000000000000030000000000000000000000006bfcf01ccdba163c2a01f4dd99508790abc205090000000000000000000000007085f63b3fbe274569e7d28283253b31361f4119000000000000000000000000b8a78ac2e52da3d6c095fdd1f7b804e03bd16849",
        "nonce": "0x13",
        "accessList": []
      },
      "additionalContracts": [],
      "isFixedGasLimit": false
    },
    {
      "hash": null,
      "transactionType": "CALL",
      "contractName": null,
      "contractAddress": "0x8E2a4c71906640B058051c00783160bE306c38fE",
      "function": "updateBoostedBalanceOf(address,address[])",
      "arguments": [
        "0xd4e43E0D278De1024355FCD203A1C16E175Ba32E",
        "[0x5C183B6B02444977c7db8498Bd608a9adD62924a, 0x6BfCF01CcdbA163c2A01F4DD99508790aBc20509, 0x85Fc028b41E872Cc4BEcDbB5d94AD0F0f27e2D6D]"
      ],
      "transaction": {
        "type": "0x02",
        "from": "0x599e1de505cfd6f10f64dd7268d856831f61627a",
        "to": "0x8e2a4c71906640b058051c00783160be306c38fe",
        "gas": "0x49b04",
        "value": "0x0",
        "data": "0x5640784f000000000000000000000000d4e43e0d278de1024355fcd203a1c16e175ba32e000000000000000000000000000000000000000000000000000000000000004000000000000000000000000000000000000000000000000000000000000000030000000000000000000000005c183b6b02444977c7db8498bd608a9add62924a0000000000000000000000006bfcf01ccdba163c2a01f4dd99508790abc2050900000000000000000000000085fc028b41e872cc4becdbb5d94ad0f0f27e2d6d",
        "nonce": "0x14",
        "accessList": []
      },
      "additionalContracts": [],
      "isFixedGasLimit": false
    }
  ],
  "receipts": [],
  "libraries": [],
  "pending": [],
  "returns": {},
  "timestamp": 1705427012,
  "chain": 10,
  "multi": false,
  "commit": "553df5aa"
}