{
  "transactions": [
    {
      "hash": null,
      "transactionType": "CALL",
      "contractName": null,
      "contractAddress": "0xb5359eCdc13f055DF2b433520F9Df35D68F49D3d",
      "function": "mint(address,uint256)",
      "arguments": [
        "0x599e1DE505CfD6f10F64DD7268D856831f61627a",
        "500000000000000000000000"
      ],
      "transaction": {
        "type": "0x02",
        "from": "0x599e1de505cfd6f10f64dd7268d856831f61627a",
        "to": "0xb5359ecdc13f055df2b433520f9df35d68f49d3d",
        "gas": "0x12013",
        "value": "0x0",
        "data": "0x40c10f19000000000000000000000000599e1de505cfd6f10f64dd7268d856831f61627a0000000000000000000000000000000000000000000069e10de76676d0800000",
        "nonce": "0x1",
        "accessList": []
      },
      "additionalContracts": [],
      "isFixedGasLimit": false
    },
    {
      "hash": null,
      "transactionType": "CALL",
      "contractName": null,
      "contractAddress": "0xb5359eCdc13f055DF2b433520F9Df35D68F49D3d",
      "function": "approve(address,uint256)",
      "arguments": [
        "0x8E2a4c71906640B058051c00783160bE306c38fE",
        "500000000000000000000000"
      ],
      "transaction": {
        "type": "0x02",
        "from": "0x599e1de505cfd6f10f64dd7268d856831f61627a",
        "to": "0xb5359ecdc13f055df2b433520f9df35d68f49d3d",
        "gas": "0xf9c9",
        "value": "0x0",
        "data": "0x095ea7b30000000000000000000000008e2a4c71906640b058051c00783160be306c38fe0000000000000000000000000000000000000000000069e10de76676d0800000",
        "nonce": "0x2",
        "accessList": []
      },
      "additionalContracts": [],
      "isFixedGasLimit": false
    },
    {
      "hash": null,
      "transactionType": "CALL",
      "contractName": null,
      "contractAddress": "0x8E2a4c71906640B058051c00783160bE306c38fE",
      "function": "queueNewRewards(address,uint256)",
      "arguments": [
        "0x419fb13b1F22c4E3A364176B237E372cA55dF4a8",
        "184687500000000000000000"
      ],
      "transaction": {
        "type": "0x02",
        "from": "0x599e1de505cfd6f10f64dd7268d856831f61627a",
        "to": "0x8e2a4c71906640b058051c00783160be306c38fe",
        "gas": "0x25ce5",
        "value": "0x0",
        "data": "0x04d0c2c5000000000000000000000000419fb13b1f22c4e3a364176b237e372ca55df4a800000000000000000000000000000000000000000000271bedef8db00c0e0000",
        "nonce": "0x3",
        "accessList": []
      },
      "additionalContracts": [],
      "isFixedGasLimit": false
    },
    {
      "hash": null,
      "transactionType": "CALL",
      "contractName": null,
      "contractAddress": "0x8E2a4c71906640B058051c00783160bE306c38fE",
      "function": "queueNewRewards(address,uint256)",
      "arguments": [
        "0x7D627406672F712e69080cf9718fb21c30995f09",
        "110787500000000000000000"
      ],
      "transaction": {
        "type": "0x02",
        "from": "0x599e1de505cfd6f10f64dd7268d856831f61627a",
        "to": "0x8e2a4c71906640b058051c00783160be306c38fe",
        "gas": "0x238b8",
        "value": "0x0",
        "data": "0x04d0c2c50000000000000000000000007d627406672f712e69080cf9718fb21c30995f09000000000000000000000000000000000000000000001775cd6ab0ab14de0000",
        "nonce": "0x4",
        "accessList": []
      },
      "additionalContracts": [],
      "isFixedGasLimit": false
    },
    {
      "hash": null,
      "transactionType": "CALL",
      "contractName": null,
      "contractAddress": "0x8E2a4c71906640B058051c00783160bE306c38fE",
      "function": "queueNewRewards(address,uint256)",
      "arguments": [
        "0x3e27FfA5A041c6407F44c0C63d7df38293F02F05",
        "129525000000000000000000"
      ],
      "transaction": {
        "type": "0x02",
        "from": "0x599e1de505cfd6f10f64dd7268d856831f61627a",
        "to": "0x8e2a4c71906640b058051c00783160be306c38fe",
        "gas": "0x238b8",
        "value": "0x0",
        "data": "0x04d0c2c50000000000000000000000003e27ffa5a041c6407f44c0c63d7df38293f02f05000000000000000000000000000000000000000000001b6d90773f2376b40000",
        "nonce": "0x5",
        "accessList": []
      },
      "additionalContracts": [],
      "isFixedGasLimit": false
    },
    {
      "hash": null,
      "transactionType": "CALL",
      "contractName": null,
      "contractAddress": "0x8E2a4c71906640B058051c00783160bE306c38fE",
      "function": "queueNewRewards(address,uint256)",
      "arguments": [
        "0xd4e43E0D278De1024355FCD203A1C16E175Ba32E",
        "75000000000000000000000"
      ],
      "transaction": {
        "type": "0x02",
        "from": "0x599e1de505cfd6f10f64dd7268d856831f61627a",
        "to": "0x8e2a4c71906640b058051c00783160be306c38fe",
        "gas": "0x204ec",
        "value": "0x0",
        "data": "0x04d0c2c5000000000000000000000000d4e43e0d278de1024355fcd203a1c16e175ba32e000000000000000000000000000000000000000000000fe1c215e8f838e00000",
        "nonce": "0x6",
        "accessList": []
      },
      "additionalContracts": [],
      "isFixedGasLimit": false
    }
  ],
  "receipts": [],
  "libraries": [],
  "pending": [],
  "returns": {},
  "timestamp": 1706729995,
  "chain": 10,
  "multi": false,
  "commit": "504312c8"
}